:020000040800F2
:1000000030040020C90000089F0500089D05000875
:1000100000000000000000000000000000000000E0
:10002000000000000000000000000000FD080008C3
:10003000000000000000000035060008FD0A00086E
:10004000F900000800000000F9000008F9000008AD
:10005000F9000008F9000008F9000008F90000089C
:1000600000000000F9000008F9000008F90000088D
:10007000F9000008F9000008F9000008000000007D
:10008000F90000080000000000000000F90000086E
:10009000F9000008F9000008F9000008F90000085C
:1000A000F9000008F9000008F9000008790B0008C1
:1000B000F90000080348854600F078F8004800473A
:1000C00091130008300400200C4880F308880C4885
:1000D0000168090E0B4A914205D10B480B4901609A
:1000E0000B480C4901600C4880470C480047FEE76C
:1000F000FEE7FEE7FEE7FEE7FEE700003004002033
:10010000040000001F000000181002400100000061
:100110000000014000000000050B0008B5000008C9
:1001200030B50B46014600202022012409E00D468F
:10013000D5409D4205D31D469540491B2546954017
:1001400040191546521E002DF1DC30BDF0B51FB42C
:100150000646002082B005464024019100901BE035
:10016000019922460F46304600F042F8049A059B5A
:10017000801A994110D310461946224600F028F8FB
:10018000361A8F410197224601200021009F00F07E
:100190001FF838184D4100902046641E0028DFDC0F
:1001A000019B00982946324607B0F0BD064C012558
:1001B000064E05E0E36807CC2B430C3C984710340F
:1001C000B442F7D3FFF77AFFD4130008F413000802
:1001D00010B5202A04DB0146203A9140002010BDD2
:1001E000914020239C1A0346E3401943904010BDE0
:1001F00010B5202A04DB0846203AD040002110BD6B
:100200000B46D340D0402024A21A914008431946FF
:1002100010BD01E0401E80B20028FBD170470000F5
:100220000EB5FF20694608700871087202463F212A
:10023000012000F0FBF801220021022000F0F6F876
:1002400002AA01A9684600F0A9F80BA000F034FE4C
:10025000694609780BA000F02FFE694609790DA0C8
:1002600000F02AFE6946097A0EA000F025FE11A0D2
:1002700000F022FE0EBD00000D0A2D2D2D2D2D0D9E
:100280000A00000064617461313D30782532580DF8
:100290000A00000064617461323D30782532580DE7
:1002A0000A00000064617461333D30782532580DD6
:1002B0000A0000002D2D2D2D2D0D0A00F0B5012175
:1002C0000F0387B0384600F0DBF90121480400F045
:1002D000B3F9092000220521C00600F04BF90920DE
:1002E00000220621C00600F045F90920002207215E
:1002F000C00600F03FF902216846017100248471B4
:10030000C471032545712020009009206946C0066C
:1003100000F0F8F88020009009206946C00600F03F
:10032000F1F84020009009206946C00600F0EAF884
:100330000121684601710E0200968471C4714571F5
:1003400009206946C00600F0DDF809203146C006E4
:1003500000F022F9104D284600F070FA6846072197
:10036000048109028181C48104826915418230219E
:100370008182C48207210183311D418102A928465F
:1003800000F084FA3946284600F0ACFA01212846EC
:1003900000F04AFA07B0F0BD00300140F7B505465D
:1003A0000C460120FFF735FFFF2609270136FF061F
:1003B0003146384600F0F0F8002000F01DF82870B3
:1003C000002000F019F82070002000F015F80299C4
:1003D00008703146384600F0DDF80120FFF719FFBC
:1003E0003146384600F0D8F80120FFF712FF3146B9
:1003F000384600F0CFF8FEBD70B50B4C0546022123
:10040000204600F03BFA0028F9D02946204600F0AB
:1004100073FA0121204600F031FA0028F9D0204675
:1004200000F05EFA70BD000000300140F7B50646EE
:1004300017460120FFF7EDFEFF2409250134ED06E4
:100440002146284600F0A8F83046FFF7D5FF01986E
:10045000FFF7D2FF3846FFF7CFFF2146284600F0CE
:1004600099F80120FFF7D5FE2146284600F094F8C0
:100470000120FFF7CEFE2146284600F08BF8FEBD96
:1004800001B503480099016001680029FCD108BD4D
:1004900014000020092110B5C906884202D10121AB
:1004A0004C0404E01249884209D10121040220468B
:1004B00000F0CEF80021204600F0CAF810BD0D492A
:1004C000884202D101210402F1E70B49884202D19E
:1004D00001210C05EBE70949884202D101214402C0
:1004E000E5E707498842E9D101218C05DFE70000F3
:1004F0000004004800080048000C004800100048B4
:1005000000140048F0B50022012423460D689340F2
:100510001D409D422AD10D79012D01D0022D12D10D
:10052000876855000326AE40B74387604E79AE40DA
:1005300085682E43866085889D43858085888B7974
:1005400093401D438580066855000323AB409E43BE
:1005500006600E790768AE403E430660C6689E435B
:10056000C660CB79AB40C5682B43C360521C102AD0
:10057000CBD3F0BD4B07DB0E9A40C90810B58900FC
:100580000818016A0F249C40A1430162016A1143CB
:10059000016210BD0185704781617047FEE77047B9
:1005A00030B5837801210278002B15D094080E4BCA
:1005B000A400E41823689207D50EFF22AA409343B3
:1005C00042789207120EAA401A4322600078C006B1
:1005D000C00E8140054804E0D006C00E81400348AB
:1005E0008030016030BD000000E400E000E100E088
:1005F0008307FF22DB0E9A408907090E99400028E5
:100600000BDA0007000F0838830808489B00181809
:10061000C36993430B43C3617047830804489B003D
:100620001B181868904308431860704700ED00E0FD
:1006300000E400E070470000044A0029516901D03D
:10064000014300E081435161704700000010024007
:10065000044A0029916A01D0014300E0814391627C
:100660007047000000100240044A0029116901D0BF
:10067000014300E081431161704700000010024017
:10068000044A0029916901D0014300E0814391614E
:100690007047000000100240044A0029D16801D0D0
:1006A000014300E08143D160704700000010024028
:1006B000F8B5564D0446686800210C22544E10408F
:1006C00005D0042803D0082803D00C281AD02660AF
:1006D0001AE06968686803228902D2030F0F10408C
:1006E000BF1C00280AD0E86A0107090F3046491CE0
:1006F000FFF716FD78430146216005E0454839467D
:100700004143F9E7444820606868444F0006000F01
:100710003B5C20680246DA4062606B685B055B0FF9
:10072000FB5CDA40A2602B6BDB0501D43C4B05E09F
:100730006B685B0401D4530800E09308E3602B6B03
:100740005F06384B03D4374F1237276100E023612F
:100750002F6BFF0601D4666100E060612F6BBF075D
:100760000ED02F6BBF07BF0F012F0BD02F6BBF0712
:10077000BF0F022F08D02F6BFF43BF0706D006E044
:10078000A26104E0A06102E0A36100E0A6612F6B1A
:10079000BF03BF0F0FD02F6BBF03BF0F012F0CD0B4
:1007A0002F6BBF03BF0F022F09D02F6BBF03BF0FEB
:1007B000032F06D006E0E26104E0E06102E0E361BD
:1007C00000E0E6612F6B3F03BF0F0FD02A6B1203CF
:1007D000920F012A0CD0286B0003800F022809D049
:1007E000286B0003800F032806D006E0226204E095
:1007F000206202E0236200E02662286B000602D439
:1008000005486062F8BD6162F8BD0000001002405A
:1008100000127A0000093D00006CDC02000000209C
:10082000809FD5000080000040220029018801D06F
:10083000114300E091430180704700000D4910B55D
:10084000884209D1841401212046FFF725FF0021A9
:100850002046FFF721FF10BD07498842FBD1041451
:1008600001212046FFF700FF00212046FFF7FCFE94
:1008700010BD0000003001400038004002461289DF
:1008800000200A4200D001207047000030B50388E4
:10089000C122920113400A88CC890D892243CC8859
:1008A0002C4322434C8922438C8922431A430280E1
:1008B0008288094B1A408B88134383800A8A0282FC
:1008C0000288042349889A4311430180818B034A9B
:1008D0001140818330BD0000FFF00000FFF70000F1
:1008E000007B70478288034B1A40828082880A43CB
:1008F00082807047FFEF000001737047704700006F
:100900001CB50021224801910091026801231B04BB
:100910001A4302605B000522120304681C40009425
:10092000019C641C0194009C002C02D1019C944207
:10093000F3D10268920328D501210091154A1121B3
:100940001160416841604168416041687F22D20383
:1009500091434160416811221204114341600168D2
:10096000012212061143016001688901FCD541682A
:100970008908890041604168022211434160416851
:100980000907890F0229FAD11CBD00911CBD000086
:10099000001002400020024030B58BB06846FFF7DF
:1009A00087FE1DA000F088FA23A0009900F084FAC9
:1009B00028A0019900F080FA2CA0029900F07CFA9E
:1009C00030A0039900F078FA34A0049900F074FA8A
:1009D00039A0059900F070FA3EA0069900F06CFA73
:1009E00043487D21C9000068FFF79AFB4149401E3A
:1009F000884210D8404C606103210D1F2846FFF744
:100A0000F7FD0020A0610720206101212846FFF7A3
:100A1000EFFD0BB030BDFEE73D3D3D3D3D3D3D3D75
:100A20003D3D3D3D3D3D3D3D3D3D3D3D3D3D3D3DF6
:100A30003D3D3D0D0A000000535953434C4B5F466A
:100A400072657175656E6379203D202564200D0AFD
:100A50000000000048434C4B5F4672657175656E3F
:100A60006379203D202564200D0A000050434C4B43
:100A70005F4672657175656E6379203D202564203F
:100A80000D0A0000414443434C4B5F46726571754B
:100A9000656E63793D202564200D0A00434543437C
:100AA0004C4B5F4672657175656E6379203D2025FC
:100AB00064200D0A0000000049324331434C4B5F73
:100AC0004672657175656E6379203D202564200D41
:100AD0000A000000555341525431434C4B5F46725B
:100AE000657175656E6379203D202564200D0A00CF
:100AF00018000020FFFFFF0000E000E010B500F04C
:100B000031F810BD10B5144801680122114301608D
:100B10004168124A114041600168114A1140016068
:100B20000168012292049143016041683F2212044E
:100B300091434160C16A09090901C162016BFF2249
:100B4000543291430163416B4908490041630021DC
:100B50008160FFF7D5FE10BD001002400CB8FFF811
:100B6000FFFFF6FE03480168002902D00168491E14
:100B7000016070471400002010B5084C064920465B
:100B800000F0D5F8002805D000F05EF920212046BD
:100B900000F006F810BD0000050105000038014016
:100BA000016270470029016802D00122114301E06F
:100BB0004908490001607047F0B5012189B0480437
:100BC000FFF73AFD01218803FFF75AFD0925ED06DD
:100BD0002846FFF75FFC012209212846FFF7CAFCDF
:100BE00001220A212846FFF7C5FC0320400200909D
:100BF0000221684601710326467100248471012791
:100C0000C77169462846FFF77DFC154D284600F060
:100C10002BF8E1204002089403900C2007900494E4
:100C20000594069403A9284600F0B2F801220D4964
:100C3000284600F098F84021284600F071F8002876
:100C4000F9D01B21684601724672877202A8FFF72D
:100C5000A7FC01212846FFF7A5FF09B0F0BD000061
:100C60000038014005010500254910B5884207D12B
:100C700001218C032046FFF70FFD0021204627E0CD
:100C80002049884202D101214C0404E01E498842D7
:100C900009D101218C042046FFF7E6FC0021204603
:100CA000FFF7E2FC10BD1949884202D10121CC04B2
:100CB000F1E71749884202D101210C05EBE71549FC
:100CC000884208D101212020FFF7E6FC00212020E6
:100CD000FFF7E2FC10BD1049884206D101214020F7
:100CE000FFF7DAFC00214020F2E70C498842F1D1FD
:100CF00001218020FFF7D0FC00218020E8E70000E0
:100D0000003801400044004000480040004C0040D2
:100D1000005000400014014000180140001C014038
:100D20000246D26900200A4200D00120704730B547
:100D30000A04130E0122144600258C40012B0ED00C
:100D4000022B0ED08368090C2340C0698A401040F2
:100D5000002B02D0002800D00125284630BD0368B2
:100D6000F1E74368EFE710B50B041C0E01238B403D
:100D7000022C02D0032C02D002E0001D00E008305B
:100D80000168002A01D0194300E09943016010BDB9
:100D900030B5044600688BB00D4640084000206026
:100DA0006068032109038843A968014361602068E2
:100DB0001C49EA680840696811432A6902431143E3
:100DC0002160A06803210902884369690143A16089
:100DD0006846FFF76DFC1448844201D106980AE08A
:100DE0001248844201D1079805E01148844201D19C
:100DF000089800E0029821680904296800D540009D
:100E0000FFF78EF92A6852088A4200D8401C2168F0
:100E1000090404D50107074A490F10400843A0817F
:100E20000BB030BDF3E9FFFF003801400044004043
:100E300000480040F0FF0000808CC005C00D7047E6
:100E4000C905C90D0185704738B50E4C20212046D3
:100E5000FFF766FF012813D12046FFF7EDFF694633
:100E60000870097808A000F027F86946087831284A
:100E700006D0322804D0332802D008A000F01CF895
:100E800038BD0000003801405072657373204B4537
:100E900059203A202563200A0D000000494E505584
:100EA0005420434D44206E6F7420737570706F72C0
:100EB0007420210D0A0000000FB410B503A9044BE3
:100EC000044A029800F018F810BC08BC04B0184797
:100ED0006D1300082C00002002E008C8121F08C192
:100EE000002AFAD170477047002001E001C1121FAB
:100EF000002AFBD170470000FFB591B00F460546B0
:100F0000002606E025280AD0149A139990476D1CF4
:100F1000761C28780028F5D1304615B0F0BD0024A5
:100F200000940121F34A029400E004436D1C2B78E5
:100F30000846203B98401042F7D128782A280ED046
:100F4000022128780246303A092A15D8009A0A2345
:100F50005A43303A80180C436D1C0090F1E701CFE2
:100F60000090002805DA0120400304430098404225
:100F70000090022004436D1C28782E2815D10420EF
:100F8000044368786D1C2A280AD101CF6D1C029099
:100F90000BE002990A225143303940186D1C02902F
:100FA0002878014630390929F3D928786C2810D0DF
:100FB00006DC4C281AD068280ED06A2817D104E025
:100FC000742813D07A2812D110E001204005044380
:100FD0000CE00121090501E0032109050C436978B2
:100FE000814203D10120000524186D1C6D1C287856
:100FF00003906E281ED00CDC632831D004DC00285E
:101000008AD0582811D1B2E064287BD069280CD14D
:1010100078E073282DD004DC6F2870D0702804D1BC
:10102000A7E075286CD078286BD0149A1399904754
:10103000761C62E06002400F022807D003280AD025
:10104000042838680AD006603F1D56E03868F1175A
:1010500006604160F8E738680680F5E70670F3E758
:101060003878694608740020487404A80390012069
:1010700003E0386803900020C0433F1D61070FD58F
:10108000002101E00199491C029A0191914213DA71
:101090008142F7DB019A0399895C0029F2D10BE0C8
:1010A000002101E00199491C01918142FADB019A7A
:1010B0000399895C0029F5D101990098139A401A87
:1010C00000902146149B00F03BF9019980194618C5
:1010D00007E0039803990078491C0391149A139927
:1010E00090470198401E0190401CF2D12146149B6C
:1010F000139A009800F014F986196D1C09E741E075
:1011000033E034E00A200021049005916002410F91
:10111000022905D001CFC2179446032905D007E064
:10112000FF1DFF08FF0003CF06E000B2C217944680
:10113000042902D140B2C1178C4600226146944571
:1011400006DA0A460021404291418C462D2102E0F8
:10115000210504D52B216A461176012103E0E10720
:1011600001D02021F7E7019154E00A200BE0102084
:1011700009E0102004900021042004430820059178
:10118000029003E008200021059104906002410FC5
:10119000022905D001CF00229446032906D006E09B
:1011A000FF1DFF08FF0003CF8C4603E080B2042937
:1011B00000D1C0B20021019121072BD503997029DC
:1011C00006D0049A1021059B4A401A4305D00EE030
:1011D00040216A461176012108E06146014306D0AC
:1011E00030216A4611760399517602210191049AC1
:1011F0000821059B4A401A430CD16146014301D1A5
:10120000610707D530216A461176012101910299C3
:10121000491E02910399582904D037A103910FA9BF
:101220000F910DE039A1F9E76146059B049AFEF79D
:101230008DFF039B8C469B5C0F9A521E0F9213707E
:1012400061460143F0D10F9807A9081A2030039096
:10125000600704D5012000048443029801E00120C6
:1012600002900399884201DD401A00E000204118F5
:101270000290019809180098401A0090E00306D4E3
:101280002146149B139A009800F05AF88619002002
:10129000049008E006A9085C149A139990470498F2
:1012A000401C761C049001998842F3DBE0030CD5C6
:1012B0002146149B139A009800F042F8861904E026
:1012C000149A302013999047761C0299481E029078
:1012D0000029F5DC08E00F980F990078491C0F9160
:1012E000149A13999047761C0399481E039000297D
:1012F000F1DCFBE609280100303132333435363772
:101300003839616263646566000000003031323351
:1013100034353637383941424344454600000000F1
:10132000F8B5044600251E461746880404D405E097
:1013300039462020B0476D1C641EF9D52846F8BDFB
:10134000FFB50446002581B01E46C80301D53027ED
:1013500000E02027880404D505E038460399B0470B
:101360006D1C641EF9D5284605B0F0BD70B5074D5B
:101370000446C1B22846FFF763FD40212846FFF727
:10138000CFFC0028F9D0204670BD00000038014095
:10139000FFF712FCFFF700FBFEF790FFFEF740FFA0
:1013A0007D25064C6D012846FFF76AF82188481C08
:1013B000208003A0FFF780FDF5E70000100000206B
:1013C0004D5347204C4F4747455220282534642928
:1013D0000D0A0000F4130008000000203000000097
:1013E000D80E00082414000830000020000400007B
:1013F000E80E0008000000000102030401020304DB
:10140000060708090000000000000000006CDC0274
:1014100000000000000000000102030406070809A4
:0414200000000000C8
:04000005080000B53A
:00000001FF
